{
  "contractName": "whispertome",
  "abi": [
    {
      "constant": true,
      "inputs": [
        {
          "name": "",
          "type": "uint256"
        }
      ],
      "name": "songs",
      "outputs": [
        {
          "name": "id",
          "type": "uint256"
        },
        {
          "name": "name",
          "type": "string"
        },
        {
          "name": "interestCount",
          "type": "uint256"
        }
      ],
      "payable": false,
      "stateMutability": "view",
      "type": "function"
    },
    {
      "constant": true,
      "inputs": [],
      "name": "songsCount",
      "outputs": [
        {
          "name": "",
          "type": "uint256"
        }
      ],
      "payable": false,
      "stateMutability": "view",
      "type": "function"
    },
    {
      "constant": true,
      "inputs": [
        {
          "name": "",
          "type": "address"
        }
      ],
      "name": "buyers",
      "outputs": [
        {
          "name": "",
          "type": "bool"
        }
      ],
      "payable": false,
      "stateMutability": "view",
      "type": "function"
    },
    {
      "inputs": [],
      "payable": false,
      "stateMutability": "nonpayable",
      "type": "constructor"
    },
    {
      "anonymous": false,
      "inputs": [
        {
          "indexed": true,
          "name": "_songId",
          "type": "uint256"
        }
      ],
      "name": "interestedEvent",
      "type": "event"
    },
    {
      "constant": false,
      "inputs": [
        {
          "name": "_songId",
          "type": "uint256"
        }
      ],
      "name": "buy",
      "outputs": [],
      "payable": false,
      "stateMutability": "nonpayable",
      "type": "function"
    }
  ],
  "bytecode": "0x6060604052341561000f57600080fd5b6100606040805190810160405280600681526020017f536f6e67203100000000000000000000000000000000000000000000000000008152506100b6640100000000026103b8176401000000009004565b6100b16040805190810160405280600681526020017f536f6e67203200000000000000000000000000000000000000000000000000008152506100b6640100000000026103b8176401000000009004565b6101d8565b60026000815480929190600101919050555060606040519081016040528060025481526020018281526020016000815250600160006002548152602001908152602001600020600082015181600001556020820151816001019080519060200190610122929190610133565b506040820151816002015590505050565b828054600181600116156101000203166002900490600052602060002090601f016020900481019282601f1061017457805160ff19168380011785556101a2565b828001600101855582156101a2579182015b828111156101a1578251825591602001919060010190610186565b5b5090506101af91906101b3565b5090565b6101d591905b808211156101d15760008160009055506001016101b9565b5090565b90565b610506806101e76000396000f300606060405260043610610062576000357c0100000000000000000000000000000000000000000000000000000000900463ffffffff168063304cff30146100675780634e8172b81461011157806397a993aa1461013a578063d96a094a1461018b575b600080fd5b341561007257600080fd5b61008860048080359060200190919050506101ae565b6040518084815260200180602001838152602001828103825284818151815260200191508051906020019080838360005b838110156100d45780820151818401526020810190506100b9565b50505050905090810190601f1680156101015780820380516001836020036101000a031916815260200191505b5094505050505060405180910390f35b341561011c57600080fd5b610124610270565b6040518082815260200191505060405180910390f35b341561014557600080fd5b610171600480803573ffffffffffffffffffffffffffffffffffffffff16906020019091905050610276565b604051808215151515815260200191505060405180910390f35b341561019657600080fd5b6101ac6004808035906020019091905050610296565b005b6001602052806000526040600020600091509050806000015490806001018054600181600116156101000203166002900480601f0160208091040260200160405190810160405280929190818152602001828054600181600116156101000203166002900480156102605780601f1061023557610100808354040283529160200191610260565b820191906000526020600020905b81548152906001019060200180831161024357829003601f168201915b5050505050908060020154905083565b60025481565b60006020528060005260406000206000915054906101000a900460ff1681565b6000803373ffffffffffffffffffffffffffffffffffffffff1673ffffffffffffffffffffffffffffffffffffffff16815260200190815260200160002060009054906101000a900460ff161515156102ee57600080fd5b60008111801561030057506002548111155b151561030b57600080fd5b60016000803373ffffffffffffffffffffffffffffffffffffffff1673ffffffffffffffffffffffffffffffffffffffff16815260200190815260200160002060006101000a81548160ff0219169083151502179055506001600082815260200190815260200160002060020160008154809291906001019190505550807f457159055d719a1d43bfea8343a4ddf2256527bd0e53758d5fbb0db383848faa60405160405180910390a250565b60026000815480929190600101919050555060606040519081016040528060025481526020018281526020016000815250600160006002548152602001908152602001600020600082015181600001556020820151816001019080519060200190610424929190610435565b506040820151816002015590505050565b828054600181600116156101000203166002900490600052602060002090601f016020900481019282601f1061047657805160ff19168380011785556104a4565b828001600101855582156104a4579182015b828111156104a3578251825591602001919060010190610488565b5b5090506104b191906104b5565b5090565b6104d791905b808211156104d35760008160009055506001016104bb565b5090565b905600a165627a7a72305820f3a26721a212a97b7f3f4b3187000a217e54c12ebfea4312b800c80fa496c6550029",
  "source": "pragma solidity ^0.4.2;\r\n\r\ncontract whispertome {\r\n    // Model a Song\r\n    struct Song {\r\n        uint id;\r\n        string name;\r\n        uint interestCount;\r\n    }\r\n\r\n    // Store accounts that have interested\r\n    mapping(address => bool) public buyers;\r\n    // Store Songs\r\n    // Fetch Song\r\n    mapping(uint => Song) public songs;\r\n    // Store Songs Count\r\n    uint public songsCount;\r\n\r\n    // interested event\r\n    event interestedEvent (\r\n        uint indexed _songId\r\n    );\r\n\r\n    function whispertome() public {\r\n        addSong(\"Song 1\");\r\n        addSong(\"Song 2\");\r\n    }\r\n\r\n    function addSong (string _name) private {\r\n        songsCount ++;\r\n        songs[songsCount] = Song(songsCount, _name, 0);\r\n    }\r\n\r\n    function buy (uint _songId) public {\r\n        // require that they haven't interested before\r\n        require(!buyers[msg.sender]);\r\n\r\n        // require a valid song\r\n        require(_songId > 0 && _songId <= songsCount);\r\n\r\n        // record that buyer is interested\r\n        buyers[msg.sender] = true;\r\n\r\n        // update song buy Count\r\n        songs[_songId].interestCount ++;\r\n\r\n        // trigger interested event\r\n         interestedEvent(_songId);\r\n    }\r\n}",
  "sourcePath": "C:\\Users\\mc499\\desktop\\whispertome\\contracts\\whispertome.sol",
  "compiler": {
    "name": "solc",
    "version": "0.4.21+commit.dfe3193c.Emscripten.clang"
  },
  "schemaVersion": "2.0.0",
  "updatedAt": "2018-04-02T23:35:25.872Z"
}